{
  "contractName": "InitContract",
  "abi": [
    {
      "constant": false,
      "inputs": [
        {
          "name": "keys",
          "type": "bytes32[]"
        },
        {
          "name": "values",
          "type": "bytes32[]"
        }
      ],
      "name": "setValue",
      "outputs": [],
      "payable": false,
      "stateMutability": "nonpayable",
      "type": "function"
    }
  ],
  "bytecode": "0x608060405234801561001057600080fd5b50610254806100206000396000f300608060405260043610610041576000357c0100000000000000000000000000000000000000000000000000000000900463ffffffff168063ec9397fd14610046575b600080fd5b34801561005257600080fd5b506100ed60048036038101908080359060200190820180359060200190808060200260200160405190810160405280939291908181526020018383602002808284378201915050505050509192919290803590602001908201803590602001908080602002602001604051908101604052809392919081815260200183836020028082843782019150505050505091929192905050506100ef565b005b805182511415156100ff57600080fd5b73222222222222222222222222222222222222222273ffffffffffffffffffffffffffffffffffffffff1663ec9397fd83836040518363ffffffff167c0100000000000000000000000000000000000000000000000000000000028152600401808060200180602001838103835285818151815260200191508051906020019060200280838360005b838110156101a3578082015181840152602081019050610188565b50505050905001838103825284818151815260200191508051906020019060200280838360005b838110156101e55780820151818401526020810190506101ca565b50505050905001945050505050600060405180830381600087803b15801561020c57600080fd5b505af1158015610220573d6000803e3d6000fd5b5050505050505600a165627a7a72305820f55d4ecb56d9bf94f4cf91eff73f2d8926421399ed8647dbdd2ddffb44891f0c0029",
  "source": "pragma solidity ^0.4.21;\n\nimport \"./ProxyContract.sol\";\n\ncontract InitContract {\n    function setValue(bytes32[] keys, bytes32[] values) public {\n        require(keys.length == values.length);\n        ProxyContract(0x2222222222222222222222222222222222222222).setValue(keys, values);\n    }\n}\n",
  "sourcePath": "/Users/martin/Programming/truffle/proxyContract/contracts/InitContract.sol",
  "compiler": {
    "name": "solc",
    "version": "0.4.24+commit.e67f0147.Emscripten.clang"
  },
  "schemaVersion": "2.0.0",
  "updatedAt": "2018-12-06T12:01:22.917Z"
}