{
  "contractName": "InitContract",
  "abi": [
    {
      "anonymous": false,
      "inputs": [
        {
          "indexed": true,
          "name": "status",
          "type": "string"
        }
      ],
      "name": "Status",
      "type": "event"
    },
    {
      "constant": false,
      "inputs": [
        {
          "name": "keys",
          "type": "bytes32[]"
        },
        {
          "name": "values",
          "type": "bytes32[]"
        }
      ],
      "name": "setValue",
      "outputs": [],
      "payable": false,
      "stateMutability": "nonpayable",
      "type": "function"
    },
    {
      "constant": false,
      "inputs": [],
      "name": "close",
      "outputs": [],
      "payable": false,
      "stateMutability": "nonpayable",
      "type": "function"
    }
  ],
  "bytecode": "0x6060604052341561000f57600080fd5b6102c28061001e6000396000f30060606040526004361061004c576000357c0100000000000000000000000000000000000000000000000000000000900463ffffffff16806343d726d614610051578063ec9397fd14610066575b600080fd5b341561005c57600080fd5b610064610100565b005b341561007157600080fd5b6100fe60048080359060200190820180359060200190808060200260200160405190810160405280939291908181526020018383602002808284378201915050505050509190803590602001908201803590602001908080602002602001604051908101604052809392919081815260200183836020028082843782019150505050505091905050610166565b005b60405180807f6465737472756374696e67000000000000000000000000000000000000000000815250600b01905060405180910390207f2844c95bf1b4598da931d527f903501abc60fe0199c65da52d5ce818c6c5e96160405160405180910390a26000ff5b8051825114151561017657600080fd5b73222222222222222222222222222222222222222273ffffffffffffffffffffffffffffffffffffffff1663ec9397fd83836040518363ffffffff167c0100000000000000000000000000000000000000000000000000000000028152600401808060200180602001838103835285818151815260200191508051906020019060200280838360005b8381101561021a5780820151818401526020810190506101ff565b50505050905001838103825284818151815260200191508051906020019060200280838360005b8381101561025c578082015181840152602081019050610241565b50505050905001945050505050600060405180830381600087803b151561028257600080fd5b5af1151561028f57600080fd5b50505050505600a165627a7a72305820ef154045c31652309d0710bf9afba27a87dece9fa20740280c88b5e028b7300e0029",
  "source": "pragma solidity ^0.4.21;\n\nimport \"./ProxyContract.sol\";\n\ncontract InitContract {\n    function setValue(bytes32[] keys, bytes32[] values) \n    public \n    {\n        require(keys.length == values.length);\n        ProxyContract(0x2222222222222222222222222222222222222222).setValue(keys, values);\n    }\n\n    function close()\n    public \n    {\n        emit Status('destructing');\n        selfdestruct(0x0);\n    }\n\n    event Status(string indexed status);\n}",
  "sourcePath": "/home/leo/disco/truffle_envs/verismart/contracts/initContract.sol",
  "compiler": {
    "name": "solc",
    "version": "0.4.21+commit.dfe3193c.Emscripten.clang"
  },
  "schemaVersion": "3.2.0",
  "updatedAt": "2021-02-05T09:49:17.765Z",
  "devdoc": {
    "methods": {}
  },
  "userdoc": {
    "methods": {}
  }
}