{
  "contractName": "ProxyContract",
  "abi": [
    {
      "payable": true,
      "stateMutability": "payable",
      "type": "fallback"
    },
    {
      "constant": false,
      "inputs": [
        {
          "name": "keys",
          "type": "bytes32[]"
        },
        {
          "name": "values",
          "type": "bytes32[]"
        }
      ],
      "name": "setValue",
      "outputs": [],
      "payable": false,
      "stateMutability": "nonpayable",
      "type": "function"
    }
  ],
  "bytecode": "0x6060604052341561000f57600080fd5b61020e8061001e6000396000f300606060405260043610610041576000357c0100000000000000000000000000000000000000000000000000000000900463ffffffff168063ec9397fd146100ae575b600073222222222222222222222222222222222222222273ffffffffffffffffffffffffffffffffffffffff1660003660405180838380828437820191505092505050600060405180830381855af491505090506040513d6000823e81600081146100aa573d82f35b3d82fd5b34156100b957600080fd5b61014660048080359060200190820180359060200190808060200260200160405190810160405280939291908181526020018383602002808284378201915050505050509190803590602001908201803590602001908080602002602001604051908101604052809392919081815260200183836020028082843782019150505050505091905050610148565b005b60008073888888888888888888888888888888888888888891508173ffffffffffffffffffffffffffffffffffffffff163373ffffffffffffffffffffffffffffffffffffffff1614151561019c57600080fd5b825184511415156101ac57600080fd5b600090505b83518110156101dc5760208102602084010151602082026020860101515580806001019150506101b1565b505050505600a165627a7a7230582007f671cbb701b02e201f96b9bf2ecfcd95cc5a2b484572676948ca25114f783b0029",
  "source": "pragma solidity ^0.4.21;\n\ncontract ProxyContract {\n\n    function setValue(bytes32[] keys, bytes32[] values) public {\n        address initializationContract = 0x8888888888888888888888888888888888888888;\n        require(msg.sender == initializationContract);\n        require(keys.length == values.length);\n        for(uint i = 0; i < keys.length; i++) {\n            assembly {\n                sstore(mload(add(add(keys, 0x20), mul(i, 0x20))), mload(add(add(values, 0x20), mul(i, 0x20))))\n            }\n        }\n    }\n\n    //https://blog.gnosis.pm/solidity-delegateproxy-contracts-e09957d0f201\n    function() public payable {\n        bool success = 0x2222222222222222222222222222222222222222.delegatecall(msg.data);\n        assembly {\n            let mempointer := mload(0x40)\n            returndatacopy(mempointer, 0, returndatasize())\n            switch success\n            case 0 { revert(mempointer, returndatasize()) }\n            default { return(mempointer, returndatasize()) }\n        }\n    }\n}\n",
  "sourcePath": "/Users/martin/Programming/truffle/proxyContract/contracts/ProxyContract.sol",
  "compiler": {
    "name": "solc",
    "version": "0.4.24+commit.e67f0147.Emscripten.clang"
  },
  "schemaVersion": "2.0.0",
  "updatedAt": "2018-12-06T12:01:22.919Z"
}